{
  "_format": "hh-sol-artifact-1",
  "contractName": "Numberv2",
  "sourceName": "contracts/universal-upgradeable/Numberv2.sol",
  "abi": [
    {
      "anonymous": false,
      "inputs": [
        {
          "indexed": false,
          "internalType": "address",
          "name": "previousAdmin",
          "type": "address"
        },
        {
          "indexed": false,
          "internalType": "address",
          "name": "newAdmin",
          "type": "address"
        }
      ],
      "name": "AdminChanged",
      "type": "event"
    },
    {
      "anonymous": false,
      "inputs": [
        {
          "indexed": true,
          "internalType": "address",
          "name": "beacon",
          "type": "address"
        }
      ],
      "name": "BeaconUpgraded",
      "type": "event"
    },
    {
      "anonymous": false,
      "inputs": [
        {
          "indexed": false,
          "internalType": "uint8",
          "name": "version",
          "type": "uint8"
        }
      ],
      "name": "Initialized",
      "type": "event"
    },
    {
      "anonymous": false,
      "inputs": [
        {
          "indexed": true,
          "internalType": "address",
          "name": "previousOwner",
          "type": "address"
        },
        {
          "indexed": true,
          "internalType": "address",
          "name": "newOwner",
          "type": "address"
        }
      ],
      "name": "OwnershipTransferred",
      "type": "event"
    },
    {
      "anonymous": false,
      "inputs": [
        {
          "indexed": true,
          "internalType": "address",
          "name": "implementation",
          "type": "address"
        }
      ],
      "name": "Upgraded",
      "type": "event"
    },
    {
      "inputs": [],
      "name": "increamentByOne",
      "outputs": [],
      "stateMutability": "nonpayable",
      "type": "function"
    },
    {
      "inputs": [],
      "name": "increamentBytwo",
      "outputs": [],
      "stateMutability": "nonpayable",
      "type": "function"
    },
    {
      "inputs": [
        {
          "internalType": "uint256",
          "name": "_number",
          "type": "uint256"
        }
      ],
      "name": "initializ",
      "outputs": [],
      "stateMutability": "nonpayable",
      "type": "function"
    },
    {
      "inputs": [],
      "name": "number",
      "outputs": [
        {
          "internalType": "uint256",
          "name": "",
          "type": "uint256"
        }
      ],
      "stateMutability": "view",
      "type": "function"
    },
    {
      "inputs": [],
      "name": "owner",
      "outputs": [
        {
          "internalType": "address",
          "name": "",
          "type": "address"
        }
      ],
      "stateMutability": "view",
      "type": "function"
    },
    {
      "inputs": [],
      "name": "proxiableUUID",
      "outputs": [
        {
          "internalType": "bytes32",
          "name": "",
          "type": "bytes32"
        }
      ],
      "stateMutability": "view",
      "type": "function"
    },
    {
      "inputs": [],
      "name": "renounceOwnership",
      "outputs": [],
      "stateMutability": "nonpayable",
      "type": "function"
    },
    {
      "inputs": [
        {
          "internalType": "address",
          "name": "newOwner",
          "type": "address"
        }
      ],
      "name": "transferOwnership",
      "outputs": [],
      "stateMutability": "nonpayable",
      "type": "function"
    },
    {
      "inputs": [
        {
          "internalType": "address",
          "name": "newImplementation",
          "type": "address"
        }
      ],
      "name": "upgradeTo",
      "outputs": [],
      "stateMutability": "nonpayable",
      "type": "function"
    },
    {
      "inputs": [
        {
          "internalType": "address",
          "name": "newImplementation",
          "type": "address"
        },
        {
          "internalType": "bytes",
          "name": "data",
          "type": "bytes"
        }
      ],
      "name": "upgradeToAndCall",
      "outputs": [],
      "stateMutability": "payable",
      "type": "function"
    }
  ],
  "bytecode": "0x60a06040523060805234801561001457600080fd5b50608051610df461004c600039600081816101bb01528181610204015281816102be015281816102fe01526103910152610df46000f3fe6080604052600436106100915760003560e01c806375c284b91161005957806375c284b91461011d5780638381f58a146101325780638da5cb5b14610148578063b75a3b9514610170578063f2fde38b1461019057600080fd5b80633659cfe6146100965780633e060144146100b85780634f1ef286146100cd57806352d1902d146100e0578063715018a614610108575b600080fd5b3480156100a257600080fd5b506100b66100b1366004610ace565b6101b0565b005b3480156100c457600080fd5b506100b6610299565b6100b66100db366004610aff565b6102b3565b3480156100ec57600080fd5b506100f5610384565b6040519081526020015b60405180910390f35b34801561011457600080fd5b506100b6610437565b34801561012957600080fd5b506100b661044b565b34801561013e57600080fd5b506100f560c95481565b34801561015457600080fd5b506097546040516001600160a01b0390911681526020016100ff565b34801561017c57600080fd5b506100b661018b366004610bc1565b61045e565b34801561019c57600080fd5b506100b66101ab366004610ace565b610574565b306001600160a01b037f00000000000000000000000000000000000000000000000000000000000000001614156102025760405162461bcd60e51b81526004016101f990610bda565b60405180910390fd5b7f00000000000000000000000000000000000000000000000000000000000000006001600160a01b031661024b600080516020610d78833981519152546001600160a01b031690565b6001600160a01b0316146102715760405162461bcd60e51b81526004016101f990610c26565b61027a816105ea565b60408051600080825260208201909252610296918391906105f2565b50565b600160c960008282546102ac9190610c72565b9091555050565b306001600160a01b037f00000000000000000000000000000000000000000000000000000000000000001614156102fc5760405162461bcd60e51b81526004016101f990610bda565b7f00000000000000000000000000000000000000000000000000000000000000006001600160a01b0316610345600080516020610d78833981519152546001600160a01b031690565b6001600160a01b03161461036b5760405162461bcd60e51b81526004016101f990610c26565b610374826105ea565b610380828260016105f2565b5050565b6000306001600160a01b037f000000000000000000000000000000000000000000000000000000000000000016146104245760405162461bcd60e51b815260206004820152603860248201527f555550535570677261646561626c653a206d757374206e6f742062652063616c60448201527f6c6564207468726f7567682064656c656761746563616c6c000000000000000060648201526084016101f9565b50600080516020610d7883398151915290565b61043f610762565b61044960006107bc565b565b600260c960008282546102ac9190610c72565b600054610100900460ff161580801561047e5750600054600160ff909116105b806104985750303b158015610498575060005460ff166001145b6104fb5760405162461bcd60e51b815260206004820152602e60248201527f496e697469616c697a61626c653a20636f6e747261637420697320616c72656160448201526d191e481a5b9a5d1a585b1a5e995960921b60648201526084016101f9565b6000805460ff19166001179055801561051e576000805461ff0019166101001790555b61052661080e565b60c98290558015610380576000805461ff0019169055604051600181527f7f26b83ff96e1f2b6a682f133852f6798a09c465da95921460cefb38474024989060200160405180910390a15050565b61057c610762565b6001600160a01b0381166105e15760405162461bcd60e51b815260206004820152602660248201527f4f776e61626c653a206e6577206f776e657220697320746865207a65726f206160448201526564647265737360d01b60648201526084016101f9565b610296816107bc565b610296610762565b7f4910fdfa16fed3260ed0e7147f7cc6da11a60208b5b9406d12a635614ffd91435460ff161561062a576106258361083d565b505050565b826001600160a01b03166352d1902d6040518163ffffffff1660e01b8152600401602060405180830381865afa925050508015610684575060408051601f3d908101601f1916820190925261068191810190610c98565b60015b6106e75760405162461bcd60e51b815260206004820152602e60248201527f45524331393637557067726164653a206e657720696d706c656d656e7461746960448201526d6f6e206973206e6f74205555505360901b60648201526084016101f9565b600080516020610d7883398151915281146107565760405162461bcd60e51b815260206004820152602960248201527f45524331393637557067726164653a20756e737570706f727465642070726f786044820152681a58589b195555525160ba1b60648201526084016101f9565b506106258383836108d9565b6097546001600160a01b031633146104495760405162461bcd60e51b815260206004820181905260248201527f4f776e61626c653a2063616c6c6572206973206e6f7420746865206f776e657260448201526064016101f9565b609780546001600160a01b038381166001600160a01b0319831681179093556040519116919082907f8be0079c531659141344cd1fd0a4f28419497f9722a3daafe3b4186f6b6457e090600090a35050565b600054610100900460ff166108355760405162461bcd60e51b81526004016101f990610cb1565b610449610904565b6001600160a01b0381163b6108aa5760405162461bcd60e51b815260206004820152602d60248201527f455243313936373a206e657720696d706c656d656e746174696f6e206973206e60448201526c1bdd08184818dbdb9d1c9858dd609a1b60648201526084016101f9565b600080516020610d7883398151915280546001600160a01b0319166001600160a01b0392909216919091179055565b6108e283610934565b6000825111806108ef5750805b15610625576108fe8383610974565b50505050565b600054610100900460ff1661092b5760405162461bcd60e51b81526004016101f990610cb1565b610449336107bc565b61093d8161083d565b6040516001600160a01b038216907fbc7cd75a20ee27fd9adebab32041f755214dbc6bffa90cc0225b39da2e5c2d3b90600090a250565b60606001600160a01b0383163b6109dc5760405162461bcd60e51b815260206004820152602660248201527f416464726573733a2064656c65676174652063616c6c20746f206e6f6e2d636f6044820152651b9d1c9858dd60d21b60648201526084016101f9565b600080846001600160a01b0316846040516109f79190610d28565b600060405180830381855af49150503d8060008114610a32576040519150601f19603f3d011682016040523d82523d6000602084013e610a37565b606091505b5091509150610a5f8282604051806060016040528060278152602001610d9860279139610a68565b95945050505050565b60608315610a77575081610a81565b610a818383610a88565b9392505050565b815115610a985781518083602001fd5b8060405162461bcd60e51b81526004016101f99190610d44565b80356001600160a01b0381168114610ac957600080fd5b919050565b600060208284031215610ae057600080fd5b610a8182610ab2565b634e487b7160e01b600052604160045260246000fd5b60008060408385031215610b1257600080fd5b610b1b83610ab2565b9150602083013567ffffffffffffffff80821115610b3857600080fd5b818501915085601f830112610b4c57600080fd5b813581811115610b5e57610b5e610ae9565b604051601f8201601f19908116603f01168101908382118183101715610b8657610b86610ae9565b81604052828152886020848701011115610b9f57600080fd5b8260208601602083013760006020848301015280955050505050509250929050565b600060208284031215610bd357600080fd5b5035919050565b6020808252602c908201527f46756e6374696f6e206d7573742062652063616c6c6564207468726f7567682060408201526b19195b1959d85d1958d85b1b60a21b606082015260800190565b6020808252602c908201527f46756e6374696f6e206d7573742062652063616c6c6564207468726f7567682060408201526b6163746976652070726f787960a01b606082015260800190565b60008219821115610c9357634e487b7160e01b600052601160045260246000fd5b500190565b600060208284031215610caa57600080fd5b5051919050565b6020808252602b908201527f496e697469616c697a61626c653a20636f6e7472616374206973206e6f74206960408201526a6e697469616c697a696e6760a81b606082015260800190565b60005b83811015610d17578181015183820152602001610cff565b838111156108fe5750506000910152565b60008251610d3a818460208701610cfc565b9190910192915050565b6020815260008251806020840152610d63816040850160208701610cfc565b601f01601f1916919091016040019291505056fe360894a13ba1a3210667c828492db98dca3e2076cc3735a920a3ca505d382bbc416464726573733a206c6f772d6c6576656c2064656c65676174652063616c6c206661696c6564a26469706673582212200291766282f88b1a2da98d61b7f888efda75199ee3a9dbf418ca800476e69a7064736f6c634300080a0033",
  "linkReferences": {},
  "deployedLinkReferences": {}
}