{
  "_format": "hh-sol-artifact-1",
  "contractName": "Numberv1",
  "sourceName": "contracts/universal-upgradeable/Numberv1.sol",
  "abi": [
    {
      "anonymous": false,
      "inputs": [
        {
          "indexed": false,
          "internalType": "address",
          "name": "previousAdmin",
          "type": "address"
        },
        {
          "indexed": false,
          "internalType": "address",
          "name": "newAdmin",
          "type": "address"
        }
      ],
      "name": "AdminChanged",
      "type": "event"
    },
    {
      "anonymous": false,
      "inputs": [
        {
          "indexed": true,
          "internalType": "address",
          "name": "beacon",
          "type": "address"
        }
      ],
      "name": "BeaconUpgraded",
      "type": "event"
    },
    {
      "anonymous": false,
      "inputs": [
        {
          "indexed": false,
          "internalType": "uint8",
          "name": "version",
          "type": "uint8"
        }
      ],
      "name": "Initialized",
      "type": "event"
    },
    {
      "anonymous": false,
      "inputs": [
        {
          "indexed": true,
          "internalType": "address",
          "name": "previousOwner",
          "type": "address"
        },
        {
          "indexed": true,
          "internalType": "address",
          "name": "newOwner",
          "type": "address"
        }
      ],
      "name": "OwnershipTransferred",
      "type": "event"
    },
    {
      "anonymous": false,
      "inputs": [
        {
          "indexed": true,
          "internalType": "address",
          "name": "implementation",
          "type": "address"
        }
      ],
      "name": "Upgraded",
      "type": "event"
    },
    {
      "inputs": [],
      "name": "increamentByOne",
      "outputs": [],
      "stateMutability": "nonpayable",
      "type": "function"
    },
    {
      "inputs": [
        {
          "internalType": "uint256",
          "name": "_number",
          "type": "uint256"
        }
      ],
      "name": "initializ",
      "outputs": [],
      "stateMutability": "nonpayable",
      "type": "function"
    },
    {
      "inputs": [],
      "name": "number",
      "outputs": [
        {
          "internalType": "uint256",
          "name": "",
          "type": "uint256"
        }
      ],
      "stateMutability": "view",
      "type": "function"
    },
    {
      "inputs": [],
      "name": "owner",
      "outputs": [
        {
          "internalType": "address",
          "name": "",
          "type": "address"
        }
      ],
      "stateMutability": "view",
      "type": "function"
    },
    {
      "inputs": [],
      "name": "proxiableUUID",
      "outputs": [
        {
          "internalType": "bytes32",
          "name": "",
          "type": "bytes32"
        }
      ],
      "stateMutability": "view",
      "type": "function"
    },
    {
      "inputs": [],
      "name": "renounceOwnership",
      "outputs": [],
      "stateMutability": "nonpayable",
      "type": "function"
    },
    {
      "inputs": [
        {
          "internalType": "address",
          "name": "newOwner",
          "type": "address"
        }
      ],
      "name": "transferOwnership",
      "outputs": [],
      "stateMutability": "nonpayable",
      "type": "function"
    },
    {
      "inputs": [
        {
          "internalType": "address",
          "name": "newImplementation",
          "type": "address"
        }
      ],
      "name": "upgradeTo",
      "outputs": [],
      "stateMutability": "nonpayable",
      "type": "function"
    },
    {
      "inputs": [
        {
          "internalType": "address",
          "name": "newImplementation",
          "type": "address"
        },
        {
          "internalType": "bytes",
          "name": "data",
          "type": "bytes"
        }
      ],
      "name": "upgradeToAndCall",
      "outputs": [],
      "stateMutability": "payable",
      "type": "function"
    }
  ],
  "bytecode": "0x60a06040523060805234801561001457600080fd5b50608051610dc161004c6000396000818161019b015281816101e40152818161029b015281816102db015261036e0152610dc16000f3fe6080604052600436106100865760003560e01c8063715018a611610059578063715018a6146100fd5780638381f58a146101125780638da5cb5b14610128578063b75a3b9514610150578063f2fde38b1461017057600080fd5b80633659cfe61461008b5780633e060144146100ad5780634f1ef286146100c257806352d1902d146100d5575b600080fd5b34801561009757600080fd5b506100ab6100a6366004610a98565b610190565b005b3480156100b957600080fd5b506100ab610279565b6100ab6100d0366004610ac9565b610290565b3480156100e157600080fd5b506100ea610361565b6040519081526020015b60405180910390f35b34801561010957600080fd5b506100ab610414565b34801561011e57600080fd5b506100ea60c95481565b34801561013457600080fd5b506097546040516001600160a01b0390911681526020016100f4565b34801561015c57600080fd5b506100ab61016b366004610b8b565b610428565b34801561017c57600080fd5b506100ab61018b366004610a98565b61053e565b306001600160a01b037f00000000000000000000000000000000000000000000000000000000000000001614156101e25760405162461bcd60e51b81526004016101d990610ba4565b60405180910390fd5b7f00000000000000000000000000000000000000000000000000000000000000006001600160a01b031661022b600080516020610d45833981519152546001600160a01b031690565b6001600160a01b0316146102515760405162461bcd60e51b81526004016101d990610bf0565b61025a816105b4565b60408051600080825260208201909252610276918391906105bc565b50565b60c9805490600061028983610c3c565b9190505550565b306001600160a01b037f00000000000000000000000000000000000000000000000000000000000000001614156102d95760405162461bcd60e51b81526004016101d990610ba4565b7f00000000000000000000000000000000000000000000000000000000000000006001600160a01b0316610322600080516020610d45833981519152546001600160a01b031690565b6001600160a01b0316146103485760405162461bcd60e51b81526004016101d990610bf0565b610351826105b4565b61035d828260016105bc565b5050565b6000306001600160a01b037f000000000000000000000000000000000000000000000000000000000000000016146104015760405162461bcd60e51b815260206004820152603860248201527f555550535570677261646561626c653a206d757374206e6f742062652063616c60448201527f6c6564207468726f7567682064656c656761746563616c6c000000000000000060648201526084016101d9565b50600080516020610d4583398151915290565b61041c61072c565b6104266000610786565b565b600054610100900460ff16158080156104485750600054600160ff909116105b806104625750303b158015610462575060005460ff166001145b6104c55760405162461bcd60e51b815260206004820152602e60248201527f496e697469616c697a61626c653a20636f6e747261637420697320616c72656160448201526d191e481a5b9a5d1a585b1a5e995960921b60648201526084016101d9565b6000805460ff1916600117905580156104e8576000805461ff0019166101001790555b6104f06107d8565b60c9829055801561035d576000805461ff0019169055604051600181527f7f26b83ff96e1f2b6a682f133852f6798a09c465da95921460cefb38474024989060200160405180910390a15050565b61054661072c565b6001600160a01b0381166105ab5760405162461bcd60e51b815260206004820152602660248201527f4f776e61626c653a206e6577206f776e657220697320746865207a65726f206160448201526564647265737360d01b60648201526084016101d9565b61027681610786565b61027661072c565b7f4910fdfa16fed3260ed0e7147f7cc6da11a60208b5b9406d12a635614ffd91435460ff16156105f4576105ef83610807565b505050565b826001600160a01b03166352d1902d6040518163ffffffff1660e01b8152600401602060405180830381865afa92505050801561064e575060408051601f3d908101601f1916820190925261064b91810190610c65565b60015b6106b15760405162461bcd60e51b815260206004820152602e60248201527f45524331393637557067726164653a206e657720696d706c656d656e7461746960448201526d6f6e206973206e6f74205555505360901b60648201526084016101d9565b600080516020610d4583398151915281146107205760405162461bcd60e51b815260206004820152602960248201527f45524331393637557067726164653a20756e737570706f727465642070726f786044820152681a58589b195555525160ba1b60648201526084016101d9565b506105ef8383836108a3565b6097546001600160a01b031633146104265760405162461bcd60e51b815260206004820181905260248201527f4f776e61626c653a2063616c6c6572206973206e6f7420746865206f776e657260448201526064016101d9565b609780546001600160a01b038381166001600160a01b0319831681179093556040519116919082907f8be0079c531659141344cd1fd0a4f28419497f9722a3daafe3b4186f6b6457e090600090a35050565b600054610100900460ff166107ff5760405162461bcd60e51b81526004016101d990610c7e565b6104266108ce565b6001600160a01b0381163b6108745760405162461bcd60e51b815260206004820152602d60248201527f455243313936373a206e657720696d706c656d656e746174696f6e206973206e60448201526c1bdd08184818dbdb9d1c9858dd609a1b60648201526084016101d9565b600080516020610d4583398151915280546001600160a01b0319166001600160a01b0392909216919091179055565b6108ac836108fe565b6000825111806108b95750805b156105ef576108c8838361093e565b50505050565b600054610100900460ff166108f55760405162461bcd60e51b81526004016101d990610c7e565b61042633610786565b61090781610807565b6040516001600160a01b038216907fbc7cd75a20ee27fd9adebab32041f755214dbc6bffa90cc0225b39da2e5c2d3b90600090a250565b60606001600160a01b0383163b6109a65760405162461bcd60e51b815260206004820152602660248201527f416464726573733a2064656c65676174652063616c6c20746f206e6f6e2d636f6044820152651b9d1c9858dd60d21b60648201526084016101d9565b600080846001600160a01b0316846040516109c19190610cf5565b600060405180830381855af49150503d80600081146109fc576040519150601f19603f3d011682016040523d82523d6000602084013e610a01565b606091505b5091509150610a298282604051806060016040528060278152602001610d6560279139610a32565b95945050505050565b60608315610a41575081610a4b565b610a4b8383610a52565b9392505050565b815115610a625781518083602001fd5b8060405162461bcd60e51b81526004016101d99190610d11565b80356001600160a01b0381168114610a9357600080fd5b919050565b600060208284031215610aaa57600080fd5b610a4b82610a7c565b634e487b7160e01b600052604160045260246000fd5b60008060408385031215610adc57600080fd5b610ae583610a7c565b9150602083013567ffffffffffffffff80821115610b0257600080fd5b818501915085601f830112610b1657600080fd5b813581811115610b2857610b28610ab3565b604051601f8201601f19908116603f01168101908382118183101715610b5057610b50610ab3565b81604052828152886020848701011115610b6957600080fd5b8260208601602083013760006020848301015280955050505050509250929050565b600060208284031215610b9d57600080fd5b5035919050565b6020808252602c908201527f46756e6374696f6e206d7573742062652063616c6c6564207468726f7567682060408201526b19195b1959d85d1958d85b1b60a21b606082015260800190565b6020808252602c908201527f46756e6374696f6e206d7573742062652063616c6c6564207468726f7567682060408201526b6163746976652070726f787960a01b606082015260800190565b6000600019821415610c5e57634e487b7160e01b600052601160045260246000fd5b5060010190565b600060208284031215610c7757600080fd5b5051919050565b6020808252602b908201527f496e697469616c697a61626c653a20636f6e7472616374206973206e6f74206960408201526a6e697469616c697a696e6760a81b606082015260800190565b60005b83811015610ce4578181015183820152602001610ccc565b838111156108c85750506000910152565b60008251610d07818460208701610cc9565b9190910192915050565b6020815260008251806020840152610d30816040850160208701610cc9565b601f01601f1916919091016040019291505056fe360894a13ba1a3210667c828492db98dca3e2076cc3735a920a3ca505d382bbc416464726573733a206c6f772d6c6576656c2064656c65676174652063616c6c206661696c6564a2646970667358221220df2b328e859b63730da56232e1fa75c0d475000fb3e4918a0b3fd9ed2d4285b764736f6c634300080a0033",
  "linkReferences": {},
  "deployedLinkReferences": {}
}